:100000002CC045C044C043C042C041C040C03FC0F6
:100010003EC03DC03CC067C33AC039C038C027C4E9
:10002000ACC300003B00380000003A00370000007D
:100030003900360001010101010101010202020241
:1000400001020408102040800402010800000000A2
:1000500000040302010000009D0611241FBECFE52D
:10006000D2E0DEBFCDBF20E0A0E6B0E001C01D922F
:10007000A93BB207E1F710E0CDE2D0E003C0219741
:10008000FE0194D6CC32D107D1F70AD495C6B8CFA9
:100090008091B800882339F02091B70082131CC0EA
:1000A0008FEF9FEF08959091B6008091B500891B66
:1000B0008F70B1F39091B6008091B5009817E1F37D
:1000C000E091B600EF5FEF70E093B600F0E0E05A29
:1000D000FF4F808190E00895E22FF0E0E05AFF4F5B
:1000E000808190E02F5F2093B70008959091B40035
:1000F0009923A1F09091B800903240F59091B7000B
:10010000E92FF0E0E05AFF4F808381E0890F809370
:10011000B7008093B80081E090E008952091B3008B
:100120009091B2002F5F921B9F7081F09091B3006D
:100130009F5F9F702091B2009217E1F3E92FF0E0EA
:10014000E059FF4F80839093B300E5CF90E080E0CB
:10015000089591E09093B400880F8093600090938D
:10016000B7009093B80008953FB7F8948091AA0023
:100170009091AB00A091AC00B091AD0022B708B651
:1001800000FE05C02F3F19F00196A11DB11D3FBF14
:10019000BA2FA92F982F8827BC01CD01620F711D9E
:1001A000811D911D43E0660F771F881F991F4A9597
:1001B000D1F70895CF92DF92EF92FF92CF93DF9322
:1001C0006B017C01D1DFEB01CFDF6C1B7D0B683E47
:1001D0007340A0F0C114D104E104F10439F4DF91BB
:1001E000CF91FF90EF90DF90CF90089581E0C81AF3
:1001F000D108E108F108C851DC4FE6CFC114D104A1
:10020000E104F10409F7EBCF2FB7F8946091A60051
:100210007091A7008091A8009091A9002FBF089528
:10022000CF93DF931F92CDB7DEB7D19ADF9A00004C
:1002300089B38095881F8827881F89838BB3807531
:100240008BBB8AB380758ABB89810F90DF91CF9178
:100250000895D09AC29A000086B39BB390759BBB59
:100260009AB390759ABB82FB882780F991E0892721
:1002700008959AB321E030E0082E01C0220F0A94BD
:10028000EAF7922B9ABB9BB301C0660F8A95EAF7F7
:10029000692B6BBB08952F923F924F925F926F92A2
:1002A0007F928F929F92AF92BF92CF92DF92EF9206
:1002B000FF920F931F93CF93DF9300D000D000D015
:1002C0001F92CDB7DEB77B014A832983982F9F7099
:1002D00082958F702111D4C025E030E03C832B83C0
:1002E000EB81FC81EE0FFF1FFF83EE833F016E0C5D
:1002F0007F1C4F01F4E08F1A91088E0C9F1CAE807A
:10030000BF8022E0A21AB108AE0CBF1CCE80DF80F5
:1003100038E0C31AD108CE0CDF1C2E813F812A5051
:100320003109A701420F531F5C834B83EE81FF818C
:100330003697EE0DFF1DFF83EE8310E000E0292EBF
:10034000312C482E512C81E0FA81F827FD83C10120
:10035000002E02C0959587950A94E2F780FF44C06D
:10036000F301808187FD8F7790E0FC01E05CFF4F17
:100370002491FC01EC5CFF4FE491EE23A1F08E2F61
:1003800090E0880F991FFC01E85DFF4FA591B491A3
:10039000FC01EE5DFF4F859194918FB7F894EC913D
:1003A0002E2B2C938FBFF301808191810230110598
:1003B00009F46FC00330110509F470C00130110554
:1003C00009F463C061E055DF60E0F501808191814F
:1003D00050DF61E070E080E090E0ECDE8BB3807590
:1003E0008BBB8AB380758ABBC201002E02C0959573
:1003F00087950A94E2F780FF24C00130110509F4C3
:100400005CC00230110509F46AC00115110571F4D0
:10041000F981FF2309F446C061E0F70180819181F1
:1004200028DF60E0F7018281938123DF61E070E0E3
:1004300080E090E0BFDE8BB380758BBB8AB38075A4
:100440008ABB0F5F1F4F0430110509F080CF27963C
:100450000FB6F894DEBF0FBECDBFDF91CF911F91D5
:100460000F91FF90EF90DF90CF90BF90AF909F9053
:100470008F907F906F905F904F903F902F90089556
:1004800042E050E05C834B832BCF60E0F2DE61E022
:100490009CCF61E0EEDE60E0F40198CF60E0E9DE41
:1004A00061E0FACF60E0EE81FF8180819181E1DE41
:1004B00061E0F60180819181B8CFF981FF2339F0A5
:1004C00060E0F70180819181D4DE61E0ABCF61E033
:1004D000EE81FF8180819181CCDE60E0EACF6A818C
:1004E000F60180819181C5DE6D81EB81FC81E2CFD7
:1004F0008EB98BE29EE09A95F1F78DB9CC9BFECF39
:1005000096E09A95F1F700C08DB9769BF3CF8EE017
:100510008A95F1F78FB19FEF9FB9D69A0895FF9210
:100520000F931F93CF93DF93062F142F21E0209377
:10053000B100FC01208120FD03C023E02093B10025
:10054000DC9ACC9BFECFF6E0FA95F1F700C0DE987E
:1005500026E02A95F1F700C0DC98DE9A77990BC067
:1005600087E08093B10010E0812FDF91CF911F9140
:100570000F91FF900895EC01FF24FA948091B1004F
:10058000837019F1DC9888818FB980EFB1DFD6983C
:100590008EEFAEDF80FF0CC08091B100182F11707C
:1005A00080FF02C086E0DDCF85E08093B100DCCF24
:1005B0008091B1008E7F8093B1000150219601118E
:1005C000DDCF11110EC011E0CFCFD69880EF90DFB4
:1005D0008883013021F4FFB88EEF8ADFEECF1FB899
:1005E000FBCFDE98DC9ACC9BFECF86E08A95F1F7B4
:1005F00000C0DE9AEEE0EA95F1F77599E4CF88E065
:10060000D4CF41E06091B80080E690E088DF10929E
:10061000B7001092B8001092B400811110C0809100
:10062000B100853041F0863021F0813031F481E035
:10063000089582E0089583E0089584E0089580E0BD
:100640000895CF93C1E0C60FC13208F0C0E2880F11
:1006500081608093600041E06C2F80E690E05FDF76
:1006600091E09093B700811104C09093B800CF91AE
:100670000895C093B8008FEF8C0FF9CFCF92DF921F
:10068000EF92FF92CF93DF9388E663DD80E02EDD6B
:10069000B8DFBADD6B017C01B7DD6C197D098E090D
:1006A0009F096436710581059105B8F463E088E619
:1006B000C8DF833089F7ECDCD82FEADCC82FE8DC10
:1006C000D093B000C093AF008093AE00DF91CF9184
:1006D000FF90EF90DF90CF9094CFD29ADA9AD19A90
:1006E0008BB38BBBFFCF1F920F920FB60F921124CB
:1006F0002F933F938F939F93AF93BF938091A600C7
:100700009091A700A091A800B091A9003091A500F8
:1007100026E0230F2D3768F129E8230F0396A11D4A
:10072000B11D2093A5008093A6009093A700A093ED
:10073000A800B093A9008091AA009091AB00A0916D
:10074000AC00B091AD000196A11DB11D8093AA002F
:100750009093AB00A093AC00B093AD00BF91AF916C
:100760009F918F913F912F910F900FBE0F901F90EF
:1007700018950296A11DB11DD4CF1F920F920FB6EE
:100780000F9211242F938F939F93EF93FF93809158
:100790008000823009F45EC078F4882349F181300A
:1007A00009F43EC0FF91EF919F918F912F910F908F
:1007B0000FBE0F901F901895843009F451C048F176
:1007C000853081F784E0809380009FB18091B500EF
:1007D0008F5F8F702091B600281709F446C0809370
:1007E000B500E091B500F0E0E05AFF4F90830BC0F8
:1007F0008FB1882319F08FB1869571F4789B07C06B
:1008000081E0809380001FB8D69A8EE721C084E0F3
:10081000F8CF8FB1882321F0D69888EA8DB917C018
:100820008091B2009091B3009817B1F38091B2001B
:100830008F5F8F708093B200E091B200F0E0E059DA
:10084000FF4F80818FB982E080938000D69A80E745
:100850008EB9A8CF83E080938000D6981FB8D5CFFB
:1008600085E080938000D698F2CFD698CECF1F92A5
:100870000F920FB60F9211248F9310928000D6988A
:10088000CC9B04C0CE9BFCCF88EA01C088EF8DB919
:1008900080EF8EB98F910F900FBE0F901F9018951B
:1008A00081B781BF789480B7826080BF80B7816054
:1008B00080BF83B7887F836083BF789489B7816066
:1008C00089BF8EB5887F8EBD8FB581608FBD8FB596
:1008D0008D7F8FBD8EB5877F8EBD8EB58F7E8EBD91
:1008E0008EB583608EBD86B18877866886B9379A63
:1008F0001092B7001092B8001092B400DE9ADC9A01
:10090000D49AD69A8FEF8FB98AE28DB980EF8EB9DB
:1009100088E61FDC8FE0EADB74DE76DC6B017C01AD
:1009200073DC6C197D098E099F0964367105810598
:10093000910560F461E088E684DE182F813039F09B
:1009400062E070E080E090E035DCEACF10E059DE54
:1009500011119EDB88E6FDDB8FE0C8DB80E0C6DBA3
:1009600050DE8CDE6AE0262E07E410E07BE3A72E43
:1009700070E0B72EE3E58E2EE0E09E2E8091AF0072
:10098000622D08D2911105C08091B000811101C083
:1009900075DE5FDC882309F46AC17090820073946D
:1009A0007092820031DC6B017C0125E072124DC037
:1009B000809182008530D9F527DC6C197D098E097C
:1009C0009F09603375478105910588F51DDC2B0172
:1009D0003C011ADC6419750986099709683572406B
:1009E0008105910508F0A1C080918100813009F452
:1009F0008BC008F470C0823061F720E040E06DE801
:100A000070E08091B00047DC332019F321E040E032
:100A100063E870E08091AE003EDC20E041E069E9EF
:100A200070E08091AF006EC08093B000A7CF88E6E1
:100A300090DB80E05BDB8091B00058DB8091AF0001
:100A400055DB8091AE0052DBDCDDEADB882309F464
:100A500011C188E67EDB81E149DBD3DDD5DB6B01AB
:100A60007C01D2DB6C197D098E099F096436710502
:100A700081059105F0F462E088E6E3DD823089F7D4
:100A800007DBD82F05DB9C0186E0359527958A95F5
:100A9000E1F78D2FD7FD05C0622D7CD18295807F37
:100AA000890F082E000C990B982F8827EC01C20F94
:100AB000D11DFD2EB5DB882309F4DCC020E041E028
:100AC00069E970E08F2DE7DB20E040E06DE870E041
:100AD0008C2FE1DBEFCF21E040E063E870E0809114
:100AE000AE00D9DB332009F474CF20E041E069E99E
:100AF00070E08091AF00CFDB20E040E06DE870E077
:100B00008091B000C8DB65CF20E041E069E970E08A
:100B10008091AF00C0DB332009F45BCF21E040E0DF
:100B200063E870E08091AE00E6CF21E0322691DBF1
:100B3000882369F07090810073947092810064DB67
:100B40006B017C0183E0781202C010928100F801F1
:100B50004491F50184918823C9F090E0880F991F92
:100B6000FC01E85DFF4FA591B491FC01EE5DFF4FE4
:100B7000259134919FB7F8945C91842F80958523BB
:100B80008C93F9018081482B40839FBFF4018491AD
:100B9000F8019491F501249121110DC080918100FB
:100BA000813009F442C080F1823009F44FC02CDB5F
:100BB0006B017C0112C0882329F08130A9F480B731
:100BC0008F7780BFE22FF0E0EE0FFF1FE25DFF4F57
:100BD000A591B4918C91982309F38BB380758BBB4D
:100BE0008AB380758ABBE4CE823019F480B78F7DDA
:100BF000E8CF833021F48FB58F778FBDE3CF84307A
:100C000009F78FB58F7DF9CF8091AE008F5F982F58
:100C10009F709A3029F48073805F8093AE00C7CFB5
:100C20008432D9F71092AE00C2CF8091AF008F5FAF
:100C3000982F9F709A3019F08093AF00B8CF807FC3
:100C4000805F8036C9F71092AF00B1CF8091B000BD
:100C50008F5F982F9F709A3019F08093B000A7CFC4
:100C6000807F805F8036C9F71092B000A0CF1092CD
:100C70008200EBCEC9DAC0908900D0908A00E09063
:100C80008B00F0908C006C197D098E099F09683EDD
:100C9000734081059105B0F421E040E063E870E025
:100CA0008091AE00F8DA20E041E069E970E08091DF
:100CB000AF00F1DA20E040E06DE870E08091B00034
:100CC000EADAD8CFA1DA6093890070938A00809322
:100CD0008B0090938C008091B0008F5F982F9F7055
:100CE0009A3009F0A1CE807F805F8093B00080367B
:100CF00009F044CE8091AF001092B0008F5F982F22
:100D00009F709A3019F08093AF0038CE807F805F5B
:100D10008036C9F71092AF008091AE008F5F982F98
:100D20009F709A3029F48073805F8093AE0026CE46
:100D30008432D9F71092AE0021CEE3E8F0E01182C0
:100D4000108241E050E05383428322E030E035835B
:100D50002483E9E9F0E01182108283E090E093833C
:100D6000828355834483178216825187408745E0EA
:100D700050E053874287EDE8F0E0118210829383C0
:100D800082833583248337832683918780875387A3
:100D900042870895991B79E004C0991F961708F0BF
:100DA000961B881F7A95C9F780950895EE0FFF1F4F
:0C0DB0000590F491E02D0994F894FFCF19
:00000001FF
