:1000000029C04DC04CC04BC04AC049C048C047C0C1
:1000100046C045C044C0A5C342C041C040C065C43D
:10002000EAC300003A00370000003B00380001013D
:100030000101010101010202020201020408102073
:1000400040800402010800000000000403020100D7
:1000500000008F0511241FBECFE5D2E0DEBFCDBF6B
:1000600010E0A0E6B0E0E4E4FCE002C005900D92F0
:10007000AA36B107D9F720E0AAE6B0E001C01D9288
:10008000AD3BB207E1F710E0CAE2D0E003C0219730
:10009000FE01D0D5C932D107D1F740D4D1C5B0CFF8
:1000A0008091BC00882339F02091BB0082131CC0D2
:1000B0008FEF9FEF08959091BA008091B900891B4E
:1000C0008F70B1F39091BA008091B9009817E1F365
:1000D000E091BA00EF5FEF70E093BA00F0E0E6590C
:1000E000FF4F808190E00895E22FF0E0E659FF4F46
:1000F000808190E02F5F2093BB0008959091B8001D
:100100009923A1F09091BC00903240F59091BB00F2
:10011000E92FF0E0E659FF4F808381E0890F80935B
:10012000BB008093BC0081E090E008952091B7006F
:100130009091B6002F5F921B9F7081F09091B70055
:100140009F5F9F702091B6009217E1F3E92FF0E0D6
:10015000E658FF4F80839093B700E5CF90E080E0B2
:10016000089587FD8F7790E0FC01EA5BFF4F3491A3
:10017000FC01E65CFF4F2491FC01E25DFF4FE4913E
:10018000EE23B9F0332329F03130A1F480B78F7713
:1001900080BFF0E0EE0FFF1FE85DFF4FA591B49127
:1001A0008FB7611117C0F894EC9120952E232C93F2
:1001B0008FBF0895323019F480B78F7DE9CF333087
:1001C00021F48FB58F778FBDE4CF343011F78FB521
:1001D0008F7DF9CFF894EC912E2BE9CFCF93DF935D
:1001E00087FD8F7790E0FC01E65CFF4F2491825DF4
:1001F0009F4FFC0184918823D1F090E0880F991FD4
:10020000FC01EE5DFF4FA591B491FC01E85DFF4F4D
:10021000C591D49161110EC09FB7F8948C91E22FD3
:10022000E0958E238C932881E223E8839FBFDF91A2
:10023000CF9108958FB7F894EC91E22BEC938FBF98
:10024000F6CF3FB7F8948091AE009091AF00A091A7
:10025000B000B091B10022B708B600FE05C02F3F34
:1002600019F00196A11DB11D3FBFBA2FA92F982FDC
:100270008827BC01CD01620F711D811D911D43E0D6
:10028000660F771F881F991F4A95D1F70895CF925F
:10029000DF92EF92FF92CF93DF936B017C01D1DF6E
:1002A000EB01CFDF6C1B7D0B683E7340A0F0C114E7
:1002B000D104E104F10439F4DF91CF91FF90EF9084
:1002C000DF90CF90089581E0C81AD108E108F108C5
:1002D000C851DC4FE6CFC114D104E104F10409F7A1
:1002E000EBCF2FB7F8946091AA007091AB0080918A
:1002F000AC009091AD002FBF08959AB321E030E09B
:10030000082E01C0220F0A94EAF7922B9ABB9BB3E6
:1003100001C0660F8A95EAF7692B6BBB08952F928F
:100320003F924F925F926F927F928F929F92AF9285
:10033000BF92CF92DF92EF92FF920F931F93CF93D2
:10034000DF9300D000D000D01F92CDB7DEB74B01B5
:100350004A8329836AE070E024D45B016C01211197
:10036000AFC025E030E03C832B83EB81FC81EE0FB6
:10037000FF1FFF83EE831F01280C391C3F01F4E0AF
:100380006F1A7108680C791C4E805F8022E0421A57
:100390005108480C591CEE80FF8038E0E31AF10840
:1003A000E80CF91C8E819F810A97F401E80FF91F70
:1003B000FC83EB832E813F8126503109280D391DA6
:1003C0003F832E8310E000E081E03A8138273D83AF
:1003D000C601002E02C0959587950A94E2F780FF2A
:1003E00021C061E0F1018081F9DEF101808191811C
:1003F0000230110509F46DC00330110509F46EC017
:100400000130110509F461C061E077DF60E0F201BD
:100410008081918172DF61E070E080E090E037DF01
:100420001BBA1ABAC501002E02C0959587950A9489
:10043000E2F780FF26C00130110509F45FC00230E9
:10044000110509F473C001151105A1F4F981FF2309
:1004500009F448C061E0F4018081C0DE61E0F4018C
:100460008281BCDE61E0F40180817BDE60E0F4012A
:10047000828177DE61E070E080E090E008DF1BBA07
:100480001ABA0F5F1F4F0430110509F0A1CF27964C
:100490000FB6F894DEBF0FBECDBFDF91CF911F9195
:1004A0000F91FF90EF90DF90CF90BF90AF909F9013
:1004B0008F907F906F905F904F903F902F90089516
:1004C00082E090E09C838B8350CF60E016DF61E098
:1004D0009ECF61E012DF60E0F3019ACF60E00DDFB4
:1004E00061E0FACF60E0EE81FF818081918105DFDC
:1004F00061E0F7018081918100DFBCCFF98161E08B
:10050000FF2369F0F401808169DE61E0F4018281FA
:1005100065DE60E0F401808124DE61E0A8CFEE8139
:10052000FF8180819181E9DE60E0E3CF6A81F7019C
:1005300080819181E2DE6D81EB81FC81DBCF8EB920
:100540008BE29EE09A95F1F78DB9CC9BFECF96E0B9
:100550009A95F1F700C08DB9769BF3CF8EE08A951E
:10056000F1F78FB19FEF9FB9D69A0895FF920F933D
:100570001F93CF93DF93062F142F21E02093B50014
:10058000FC01208120FD03C023E02093B500DC9A0C
:10059000CC9BFECFF6E0FA95F1F700C0DE9826E09E
:1005A0002A95F1F700C0DC98DE9A77990BC087E0B6
:1005B0008093B50010E0812FDF91CF911F910F91B3
:1005C000FF900895EC01FF24FA948091B5008370A8
:1005D00019F1DC9888818FB980EFB1DFD6988EEF62
:1005E000AEDF80FF0CC08091B500182F117080FF26
:1005F00002C086E0DDCF85E08093B500DCCF80913E
:10060000B5008E7F8093B500015021960111DDCF9A
:1006100011110EC011E0CFCFD69880EF90DF888304
:10062000013021F4FFB88EEF8ADFEECF1FB8FBCF89
:10063000DE98DC9ACC9BFECF86E08A95F1F700C06D
:10064000DE9AEEE0EA95F1F77599E4CF88E0D4CF31
:10065000482F6091BC008AE690E088DF1092BB00D2
:100660001092BC001092B800811110C08091B500AA
:10067000853041F0863021F0813031F481E00895F9
:1006800082E0089583E0089584E0089580E008956D
:10069000CF92DF92EF92FF920F931F93CF93DF934E
:1006A00000D01F92CDB7DEB781E08093B80090ED07
:1006B00090936A008093BB008093BC0080E01EDDB5
:1006C00081E0C6DF0EDE6B017C0111ED0ADE6C19E4
:1006D0007D098E099F096436710581059105A8F58C
:1006E00010936A0041E064E08AE690E03FDF91E029
:1006F0009093BB00811103C09093BC00E7CF84E0CE
:100700008093BC008E010F5F1F4F7E0184E0E80ED6
:10071000F11C8AE0D82EC4DC982F82958F706AE095
:100720002BD2282F892F6D2D30D2290FF80121933C
:100730008F01EE16FF0679F789818093B4008A81D4
:100740008093B3008B818093B2000F900F900F9035
:10075000DF91CF911F910F91FF90EF90DF90CF909D
:1007600008951F920F920FB60F9211242F933F936B
:100770008F939F93AF93BF938091AA009091AB000A
:10078000A091AC00B091AD003091A90026E0230FFC
:100790002D3768F129E8230F0396A11DB11D209381
:1007A000A9008093AA009093AB00A093AC00B093F3
:1007B000AD008091AE009091AF00A091B000B091DB
:1007C000B1000196A11DB11D8093AE009093AF00C2
:1007D000A093B000B093B100BF91AF919F918F9162
:1007E0003F912F910F900FBE0F901F90189502967A
:1007F000A11DB11DD4CF1F920F920FB60F921124DD
:100800002F938F939F93EF93FF9380918A00823071
:1008100009F45EC078F4882349F1813009F43EC0C0
:10082000FF91EF919F918F912F910F900FBE0F909D
:100830001F901895843009F451C048F1853081F734
:1008400084E080938A009FB18091B9008F5F8F70A0
:100850002091BA00281709F446C08093B900E091AE
:10086000B900F0E0E659FF4F90830BC08FB18823A9
:1008700019F08FB1869571F4789B07C081E0809361
:100880008A001FB8D69A8EE721C084E0F8CF8FB1D6
:10089000882321F0D69888EA8DB917C08091B600D8
:1008A0009091B7009817B1F38091B6008F5F8F7069
:1008B0008093B600E091B600F0E0E658FF4F8081EB
:1008C0008FB982E080938A00D69A80E78EB9A8CF4C
:1008D00083E080938A00D6981FB8D5CF85E08093B7
:1008E0008A00D698F2CFD698CECF1F920F920FB62D
:1008F0000F9211248F9310928A00D698CC9B04C03B
:10090000CE9BFCCF88EA01C088EF8DB980EF8EB90D
:100910008F910F900FBE0F901F90189581B781BFD8
:10092000789480B7826080BF80B7816080BF83B7D2
:10093000887F836083BF789489B7816089BF8EB5D3
:10094000887F8EBD8FB581608FBD8FB58D7F8FBD48
:100950008EB5877F8EBD8EB58F7E8EBD8EB5836042
:100960008EBD86B18877866886B9379A1092BB00AB
:100970001092BC001092B800DE9ADC9AD49AD69AF3
:100980008FEF8FB98AE28DB980EF8EB981E08093C5
:10099000B80090ED90936A008093BB008093BC00F8
:1009A0008FE0ACDB81E054DE9CDC6B017C01C1EDAF
:1009B00098DC6C197D098E099F09643671058105E3
:1009C0009105C0F4C0936A0041E062E08AE690E0DD
:1009D000CDDD91E09093BB00811108C09093BC00E5
:1009E00062E070E080E090E052DCE2CF82E0809351
:1009F000BC0056DB81E08093B80090ED90936A00D4
:100A00008093BB008093BC008FE078DB80E076DBD6
:100A100081E01EDE3DDE20E6C22E20E0D22ED0E0B8
:100A2000C0E0F601F080F2E0CF0ED11C61E08F2D26
:100A3000D5DB61E08F2D95DB90E6A92E90E0B92EF5
:100A400010E000E00C171D0781F0F501E08061E087
:100A50008E2DC4DB60E08E2D84DB6AEF70E080E0D9
:100A600090E015DC60E08E2DB9DB0F5F1F4FF2E0E8
:100A7000AF0EB11C0530110529F760E08F2DAEDBFC
:100A80002196C530D10569F6CAE088EEC82E83E00C
:100A9000D82EE12CF12C8091B3006C2F76D09111DF
:100AA00001C0F6DD8091B20021E040E063EA70E031
:100AB00090E035DC8091B30020E041E067E970E030
:100AC00090E02DDC8091B40020E040E06BE870E025
:100AD00090E025DC06DCA701960176D0672B682B19
:100AE000692BC9F28091B4008F5F8093B4008C337E
:100AF00091F61092B4008091B3008F5F8093B300A1
:100B00008C3349F61092B3008091B2008F5F8093CE
:100B1000B200883109F0BFCF1092B200BCCFE3EA37
:100B2000F0E01182108241E050E05383428322E0E2
:100B300030E035832483E7E9F0E01182108283E01E
:100B400090E0938382835583448317821682518772
:100B5000408745E050E053874287EBE8F0E01182A0
:100B600010829383828335832483378326839187FE
:100B70008087538742870895002480FD060E660F04
:100B800011F08695D1F7802D0895991B79E004C066
:100B9000991F961708F0961B881F7A95C9F78095BC
:100BA000089597FB072E16F4009406D077FD08D021
:100BB0002DD007FC05D03EF4909581959F4F089568
:100BC000709561957F4F0895A1E21A2EAA1BBB1B59
:100BD000FD010DC0AA1FBB1FEE1FFF1FA217B30709
:100BE000E407F50720F0A21BB30BE40BF50B661F1F
:100BF000771F881F991F1A9469F7609570958095E3
:100C000090959B01AC01BD01CF010895AA1BBB1BB0
:100C100051E107C0AA1FBB1FA617B70710F0A61BFC
:100C2000B70B881F991F5A95A9F780959095BC011D
:100C3000CD010895EE0FFF1F0590F491E02D09946A
:040C4000F894FFCF56
:0A0C4400000001000200030005009B
:00000001FF
