:1000000028C04CC04BC04AC049C048C047C046C0C9
:1000100045C044C043C04FC241C040C03FC03EC0C5
:100020003DC00000000000040302010000010204C2
:1000300008102040800402010101010101010101B9
:1000400002020200003B00380000003A00370000C6
:10005000F30111241FBECFE5D2E0DEBFCDBF10E01B
:10006000A0E6B0E0ECEAF7E002C005900D92AA36F7
:10007000B107D9F720E0AAE6B0E001C01D92A93A85
:10008000B207E1F710E0C9E2D0E003C02197FE011A
:1000900085D3C832D107D1F704D286C3B1CFAF928E
:1000A000BF92CF92DF92EF92FF920F931F93CF9365
:1000B000DF93C0E6D0E0E12CF12C5E0161E08881A5
:1000C000DBD261E0888114D300E610E0C12CD12C92
:1000D000EC14FD0489F061E0F8018081CDD260E08C
:1000E000F801808105D36AEF70E080E090E053D2A0
:1000F00060E0F8018081C0D2FFEFCF1ADF0A0E5F07
:100100001F4F85E0C816D10419F7229660E0F5016B
:100110008081B2D2FFEFEF1AFF0A85E0E816F10402
:1001200061F6DF91CF911F910F91FF90EF90DF90DB
:10013000CF90BF90AF9008959AB321E030E0082EA1
:1001400001C0220F0A94EAF7292B2ABB9BB301C0F6
:10015000660F8A95EAF7692B6BBB08952F923F9241
:100160004F925F926F927F928F929F92AF92BF92C7
:10017000CF92DF92EF92FF920F931F93CF93DF9373
:10018000CDB7DEB727970FB6F894DEBF0FBECDBF51
:100190004B014A8329836AE070E0D9D2222319F007
:1001A00022E030E002C025E030E0220F331F3401AE
:1001B000620E731E690144E0C41AD108C80CD91C30
:1001C000790152E0E51AF108E80CF91C5901E6E062
:1001D000AE1AB108A80CB91C890108501109080D04
:1001E000191D2A503109A401420F531F5C834B8310
:1001F0001F821E821C0133242B01552481E05A8169
:1002000058275D83C1010E8002C0959587950A9499
:10021000E2F780FF2DC061E0F30180812DD2F30170
:10022000808191812E813F812230310579F0233008
:10023000310581F02130310521F061E07DDF60E0A2
:1002400003C060E079DF61E0F70108C061E074DFBE
:1002500060E003C060E070DF61E0F60180819181C1
:100260006BDF61E070E080E090E095D11BBA1ABAD4
:10027000C2010E8002C0959587950A94E2F780FF2F
:100280004FC02E813F8121303105E9F02230310508
:10029000A9F1232BF1F53981332371F061E0F401E9
:1002A0008081EAD161E0F4018281E6D161E0F4016C
:1002B00080811ED260E017C060E0F50180819181ED
:1002C0003BDF61E019C0F98161E0FF2381F0F401B7
:1002D0008081D2D161E0F4018281CED160E0F4016D
:1002E000808106D261E0F401828102D212C0F50160
:1002F0008081918121DF60E0F80108C06A81F80106
:100300008081918119DF6D81EB81FC8180819181F8
:1003100013DF61E070E080E090E03DD11BBA1ABAD3
:100320002E813F812F5F3F4F3F832E832430310545
:1003300009F068CF27960FB6F894DEBF0FBECDBF89
:10034000DF91CF911F910F91FF90EF90DF90CF90B1
:10035000BF90AF909F908F907F906F905F904F90E5
:100360003F902F900895CF92DF92EF92FF920F93DC
:100370001F93CF93DF93CCE0D0E084E6C82ED12C3E
:100380000EE110E0E12CF12C21E040E06AE970E0A0
:10039000CE01E4DE20E041E066E770E0C801DEDE89
:1003A000C701B601D4D1CB0120E040E06AE670E09D
:1003B000D5DE8FEFE81AF80A80E7E81687E1F8063D
:1003C00019F70F5F1F4F0C331105E1F62196C93164
:1003D000D105B1F6DF91CF911F910F91FF90EF9072
:1003E000DF90CF900895CF93DF93E0E6F0E0808137
:1003F0009181AAE9B0E011969C938E93428153813A
:1004000013965C934E9312972481358115963C93F5
:100410002E931497A4E9B0E011969C938E931396B3
:100420005C934E9312976085718515967C936E93BD
:100430001497CEE8D0E039832883A681B781BB83A7
:10044000AA837D836C83E2E8F0E091838083538309
:1004500042833583248397838683518740873387FC
:100460002287E6E7F0E091838083B383A2835583FC
:100470004483978386835187408773876287EAE640
:10048000F0E091838083B383A28335832483378311
:100490002683B187A08773876287DF91CF91089504
:1004A0000895B2D0FDDFFBDDC0E0D0E05CDF209737
:1004B000E9F3A6DDFBCF1F920F920FB60F92112426
:1004C0002F933F938F939F93AF93BF938091A100FE
:1004D0009091A200A091A300B091A4003091A0003F
:1004E00026E0230F2D3720F40296A11DB11D05C073
:1004F00029E8230F0396A11DB11D2093A00080932E
:10050000A1009093A200A093A300B093A4008091B7
:10051000A5009091A600A091A700B091A800019617
:10052000A11DB11D8093A5009093A600A093A700E4
:10053000B093A800BF91AF919F918F913F912F9160
:100540000F900FBE0F901F9018953FB7F8948091B1
:10055000A5009091A600A091A700B091A80022B795
:1005600008B600FE05C02F3F19F00196A11DB11D70
:100570003FBFBA2FA92F982F8827820F911DA11D49
:10058000B11DBC01CD0143E0660F771F881F991F85
:100590004A95D1F708958F929F92AF92BF92CF92D2
:1005A000DF92EF92FF926B017C01CFDF4B015C0188
:1005B000C114D104E104F104F1F0C8D0C6DFDC01BC
:1005C000CB0188199909AA09BB09883E9340A10566
:1005D000B10570F321E0C21AD108E108F10888EEF4
:1005E000880E83E0981EA11CB11CC114D104E10443
:1005F000F10421F7DDCFFF90EF90DF90CF90BF9017
:10060000AF909F908F900895789480B7826080BF5C
:1006100080B7816080BF83B7826083BF83B781600A
:1006200083BF89B7816089BF1EBC8EB582608EBDD5
:100630008EB581608EBD8FB581608FBD329A319A43
:100640003098379A0895823099F018F4813069F023
:100650000895833019F0843021F008958FB58F7795
:1006600002C08FB58F7D8FBD089580B78F7702C090
:1006700080B78F7D80BF0895CF93DF9390E0FC011A
:10068000E35DFF4F2491FC01E85CFF4F84918823D8
:1006900061F190E0880F991FFC01E75BFF4FC59166
:1006A000D491FC01ED5BFF4FA591B491611109C09C
:1006B0009FB7F8948881209582238883EC912E231C
:1006C0000BC0623061F49FB7F8948881322F309567
:1006D00083238883EC912E2B2C939FBF06C08FB76A
:1006E000F894E8812E2B28838FBFDF91CF91089556
:1006F0001F93CF93DF93282F30E0F901EE5DFF4F7A
:100700008491F901E35DFF4FD491F901E85CFF4F5B
:10071000C491CC23B9F0162F811195DFEC2FF0E0B6
:10072000EE0FFF1FED5BFF4FA591B4919FB7F894BB
:10073000111104C08C91D095D82302C0EC91DE2B0E
:10074000DC939FBFDF91CF911F910895089597FB90
:10075000072E16F4009406D077FD08D00BD007FCC6
:1007600005D03EF4909581959F4F089570956195C1
:100770007F4F0895AA1BBB1B51E107C0AA1FBB1FD7
:10078000A617B70710F0A61BB70B881F991F5A951D
:10079000A9F780959095BC01CD010895EE0FFF1F3C
:0C07A0000590F491E02D0994F894FFCF2F
:0A07AC000000010002000300050038
:1019800017C0197A4005930C09021200010100806A
:101990003209040000000000000012011001FF00E5
:1019A0000008D016530704020000000104030904D4
:1019B00011241FBECFE5D2E0CDBFDEBF20E0A0E600
:1019C000B0E001C01D92AC38B207E1F79FC1DC0165
:1019D0008FEF9FEF332715C02D912827722F229567
:1019E0002727822F269526952827239522703217A0
:1019F00077952795822F8927972F76952795972773
:101A00008227615048F7809590950895E0DF8D9387
:101A10009D930895CF93CFB7CF93C395B09BE9F72C
:101A2000B09B09C0B09B07C0B09B05C0B09B03C072
:101A3000B09B01C0A7C0DF93C0916E00DD27CA58DC
:101A4000DF4FB09B02C0DF91EBCF2F930F931F931B
:101A500006B32FEF00FB20F94F933F9316B34FEFE0
:101A6000012700FB21F93BE031C04E7F012F16B367
:101A7000216028C0102F4D7F2260000006B329C0CE
:101A80004B7F2460012F000016B32BC016B3477F95
:101A900028602AC04F7E06B320612CC04F7D16B34C
:101AA00020622FC04F7B06B3206432C0422706B3AA
:101AB00049934FEF0000102710FB20F916B3137065
:101AC000C9F1297F91F2012700FB21F906B3237F99
:101AD00089F2315058F1102710FB22F916B3277EF6
:101AE00079F2012700FB23F92F7C81F206B310273E
:101AF00010FB24F92F7971F200C016B3012700FB07
:101B000025F92F7359F200C006B3102710FB26F9F0
:101B1000223040F200C016B3012700FB27F9243021
:101B200028F64F77206816B30000F9CF10E21ABFED
:101B300000271DC03B503195C31BD04010E21ABF97
:101B40000881033C19F10B3409F120916C001981D3
:101B5000110F1213EDCF093641F10D3211F0013E94
:101B600039F7CAE01AB715FD02C0CA95D9F7009334
:101B700074003F914F911F910F912F91DF91CAB740
:101B8000C5FD4BCFCF91CFBFCF9108952091740069
:101B9000222379F3109172001123E1F43430E2F042
:101BA0003093720020936D0017C0009172000130D5
:101BB0008CF40AE530916F0034FD10C000936F0083
:101BC000C1E6D0E00FC02795A8F45150A9F4220F28
:101BD0000000F9CF4AE503C042ED01C0432FC4E144
:101BE000D0E032E017B31360C09A17BB08B320E40B
:101BF00013E05F93012756E008BB279520F451506E
:101C000021F4220FF9CF012756E000003B5A08BB10
:101C1000D0F2279528F4515029F4220F0000F9CF73
:101C2000012756E0279508BB20F4515021F4220FDC
:101C3000F9CF012756E02991332308BB21F60C7F09
:101C400010917300110FC651D04008BB11F01093D2
:101C50006C0010E21ABF016017B31C7F402F4C7F4D
:101C60005F9100C000C008BB17BB48BB82CF2FEFFD
:101C7000B0E8A0E04AE0B1BF00008EE599E0B0997D
:101C8000FECFB09BFECF0197B099FDCF97FF03C069
:101C9000BA1B819501C0BA0FA69539F4A0E428F4C7
:101CA000281710F031B7282FA1E0415021F731BF9C
:101CB00000000895F201309711F48FEB9CEC21E0C5
:101CC0000C0120935700E8951124CF0102962C01B6
:101CD000089514BE88E181BD87E081BDB89A2FE7E1
:101CE0008CEF9AE0215080409040E1F700C0000066
:101CF000B8988AE580936F008FEF8093600080B57D
:101D0000826080BD8BB780628BBF089581B7282E1B
:101D1000E0DFC298712C312C412C512CC0EADFE05D
:101D200014E686B3837009F014E6115029F410927A
:101D3000730010926C009BDF0AB605FE04C06ADED9
:101D400080E28ABF02C0219761F7A895832D823077
:101D500069F4E0E8F9E1E054F10983E08093570089
:101D6000E8953097C1F7412C512C12C0803459F4BA
:101D7000F2013297E03829E1F20750F485E08093D0
:101D80005700E89505C0843019F4CD2B11F4EFC04D
:101D9000312C80917200835087FD9AC090916D0024
:101DA0009D3209F093C0883009F090C083EC809395
:101DB00061008AE580936F00809177008076909132
:101DC0007800882381F1712C911108C082E899E193
:101DD000909371008093700086E06DC0913069F43B
:101DE00041145104F1F080917B00807C482E50908A
:101DF0007C0081E187BFE89514C0933081F4809125
:101E0000790090917A0056DF80917B0090917C0060
:101E100051DF842D8F7329F490E4392E4CC09F73C9
:101E2000392E80E048C08091790010926A009111AB
:101E300006C010926B002AE630E082E038C0953090
:101E400019F48093730025C09630E9F490917A00DC
:101E5000913019F48AE999E104C0923041F488E89C
:101E600099E1909371008093700082E124C09330D7
:101E7000C1F68111D6CF8CEA99E1909371008093DD
:101E8000700084E018C0983079F0993031F4809374
:101E900075002AE630E080E00AC081E09A3009F05F
:101EA00080E02AE630E003C025E730E081E03093AF
:101EB00071002093700090917E00911105C0909167
:101EC0007D00981708F4892F8093600010927200AB
:101ED00080916F0084FF2FC0809160008F3F59F187
:101EE000C82F893008F0C8E08C1B80936000909167
:101EF000610088E8892780936100CC2381F0E0911C
:101F00007000F0917100A2E6B0E08C2F94919D9347
:101F100031968150D9F7F0937100E09370006C2FE7
:101F200082E690E073DDCC5FCC3019F08FEF8093C8
:101F30006000C0936F00C30101963C01803B944058
:101F400029F4EDE7F9E1E491EF3F89F4862D8C74F3
:101F500011F0BA9801C0BA9A0AB605FEDFCE85E143
:101F6000B09B85E18150E1F780E28ABFD7CEBA9875
:0E1F7000B0DE1BBE10BC21BE000000CDFFCFB6
:040000030000198060
:00000001FF
