:1000000028C04CC04BC04AC049C048C047C046C0C9
:1000100045C044C043C04FC241C040C03FC03EC0C5
:100020003DC00000000000040302010000010204C2
:1000300008102040800402010101010101010101B9
:1000400002020200003B00380000003A00370000C6
:10005000F30111241FBECFE5D2E0DEBFCDBF10E01B
:10006000A0E6B0E0ECEAF7E002C005900D92AA36F7
:10007000B107D9F720E0AAE6B0E001C01D92A93A85
:10008000B207E1F710E0C9E2D0E003C02197FE011A
:1000900085D3C832D107D1F704D286C3B1CFAF928E
:1000A000BF92CF92DF92EF92FF920F931F93CF9365
:1000B000DF93C0E6D0E0E12CF12C5E0161E08881A5
:1000C000DBD261E0888114D300E610E0C12CD12C92
:1000D000EC14FD0489F061E0F8018081CDD260E08C
:1000E000F801808105D36AEF70E080E090E053D2A0
:1000F00060E0F8018081C0D2FFEFCF1ADF0A0E5F07
:100100001F4F85E0C816D10419F7229660E0F5016B
:100110008081B2D2FFEFEF1AFF0A85E0E816F10402
:1001200061F6DF91CF911F910F91FF90EF90DF90DB
:10013000CF90BF90AF9008959AB321E030E0082EA1
:1001400001C0220F0A94EAF7292B2ABB9BB301C0F6
:10015000660F8A95EAF7692B6BBB08952F923F9241
:100160004F925F926F927F928F929F92AF92BF92C7
:10017000CF92DF92EF92FF920F931F93CF93DF9373
:10018000CDB7DEB727970FB6F894DEBF0FBECDBF51
:100190004B014A8329836AE070E0D9D2222319F007
:1001A00022E030E002C025E030E0220F331F3401AE
:1001B000620E731E690144E0C41AD108C80CD91C30
:1001C000790152E0E51AF108E80CF91C5901E6E062
:1001D000AE1AB108A80CB91C890108501109080D04
:1001E000191D2A503109A401420F531F5C834B8310
:1001F0001F821E821C0133242B01552481E05A8169
:1002000058275D83C1010E8002C0959587950A9499
:10021000E2F780FF2DC061E0F30180812DD2F30170
:10022000808191812E813F812230310579F0233008
:10023000310581F02130310521F061E07DDF60E0A2
:1002400003C060E079DF61E0F70108C061E074DFBE
:1002500060E003C060E070DF61E0F60180819181C1
:100260006BDF61E070E080E090E095D11BBA1ABAD4
:10027000C2010E8002C0959587950A94E2F780FF2F
:100280004FC02E813F8121303105E9F02230310508
:10029000A9F1232BF1F53981332371F061E0F401E9
:1002A0008081EAD161E0F4018281E6D161E0F4016C
:1002B00080811ED260E017C060E0F50180819181ED
:1002C0003BDF61E019C0F98161E0FF2381F0F401B7
:1002D0008081D2D161E0F4018281CED160E0F4016D
:1002E000808106D261E0F401828102D212C0F50160
:1002F0008081918121DF60E0F80108C06A81F80106
:100300008081918119DF6D81EB81FC8180819181F8
:1003100013DF61E070E080E090E03DD11BBA1ABAD3
:100320002E813F812F5F3F4F3F832E832430310545
:1003300009F068CF27960FB6F894DEBF0FBECDBF89
:10034000DF91CF911F910F91FF90EF90DF90CF90B1
:10035000BF90AF909F908F907F906F905F904F90E5
:100360003F902F900895CF92DF92EF92FF920F93DC
:100370001F93CF93DF93CCE0D0E084E6C82ED12C3E
:100380000EE110E0E12CF12C21E040E06AE970E0A0
:10039000CE01E4DE20E041E066E770E0C801DEDE89
:1003A000C701B601D4D1CB0120E040E06AE670E09D
:1003B000D5DE8FEFE81AF80A80E7E81687E1F8063D
:1003C00019F70F5F1F4F0C331105E1F62196C93164
:1003D000D105B1F6DF91CF911F910F91FF90EF9072
:1003E000DF90CF900895CF93DF93E0E6F0E0808137
:1003F0009181AAE9B0E011969C938E93428153813A
:1004000013965C934E9312972481358115963C93F5
:100410002E931497A4E9B0E011969C938E931396B3
:100420005C934E9312976085718515967C936E93BD
:100430001497CEE8D0E039832883A681B781BB83A7
:10044000AA837D836C83E2E8F0E091838083538309
:1004500042833583248397838683518740873387FC
:100460002287E6E7F0E091838083B383A2835583FC
:100470004483978386835187408773876287EAE640
:10048000F0E091838083B383A28335832483378311
:100490002683B187A08773876287DF91CF91089504
:1004A0000895B2D0FDDFFBDDC0E0D0E05CDF209737
:1004B000E9F3A6DDFBCF1F920F920FB60F92112426
:1004C0002F933F938F939F93AF93BF938091A100FE
:1004D0009091A200A091A300B091A4003091A0003F
:1004E00026E0230F2D3720F40296A11DB11D05C073
:1004F00029E8230F0396A11DB11D2093A00080932E
:10050000A1009093A200A093A300B093A4008091B7
:10051000A5009091A600A091A700B091A800019617
:10052000A11DB11D8093A5009093A600A093A700E4
:10053000B093A800BF91AF919F918F913F912F9160
:100540000F900FBE0F901F9018953FB7F8948091B1
:10055000A5009091A600A091A700B091A80022B795
:1005600008B600FE05C02F3F19F00196A11DB11D70
:100570003FBFBA2FA92F982F8827820F911DA11D49
:10058000B11DBC01CD0143E0660F771F881F991F85
:100590004A95D1F708958F929F92AF92BF92CF92D2
:1005A000DF92EF92FF926B017C01CFDF4B015C0188
:1005B000C114D104E104F104F1F0C8D0C6DFDC01BC
:1005C000CB0188199909AA09BB09883E9340A10566
:1005D000B10570F321E0C21AD108E108F10888EEF4
:1005E000880E83E0981EA11CB11CC114D104E10443
:1005F000F10421F7DDCFFF90EF90DF90CF90BF9017
:10060000AF909F908F900895789480B7826080BF5C
:1006100080B7816080BF83B7826083BF83B781600A
:1006200083BF89B7816089BF1EBC8EB582608EBDD5
:100630008EB581608EBD8FB581608FBD329A319A43
:100640003098379A0895823099F018F4813069F023
:100650000895833019F0843021F008958FB58F7795
:1006600002C08FB58F7D8FBD089580B78F7702C090
:1006700080B78F7D80BF0895CF93DF9390E0FC011A
:10068000E35DFF4F2491FC01E85CFF4F84918823D8
:1006900061F190E0880F991FFC01E75BFF4FC59166
:1006A000D491FC01ED5BFF4FA591B491611109C09C
:1006B0009FB7F8948881209582238883EC912E231C
:1006C0000BC0623061F49FB7F8948881322F309567
:1006D00083238883EC912E2B2C939FBF06C08FB76A
:1006E000F894E8812E2B28838FBFDF91CF91089556
:1006F0001F93CF93DF93282F30E0F901EE5DFF4F7A
:100700008491F901E35DFF4FD491F901E85CFF4F5B
:10071000C491CC23B9F0162F811195DFEC2FF0E0B6
:10072000EE0FFF1FED5BFF4FA591B4919FB7F894BB
:10073000111104C08C91D095D82302C0EC91DE2B0E
:10074000DC939FBFDF91CF911F910895089597FB90
:10075000072E16F4009406D077FD08D00BD007FCC6
:1007600005D03EF4909581959F4F089570956195C1
:100770007F4F0895AA1BBB1B51E107C0AA1FBB1FD7
:10078000A617B70710F0A61BB70B881F991F5A951D
:10079000A9F780959095BC01CD010895EE0FFF1F3C
:0C07A0000590F491E02D0994F894FFCF2F
:0A07AC000000010002000300050038
:00000001FF
