:100000000C94DC000C9404010C9404010C94040185
:100010000C9404010C9404010C9404010C9404014C
:100020000C9404010C9404010C949A050C940C0695
:100030000C9404010C9404010C9404010C9404012C
:100040000C9404010C9404010C9404010C9404011C
:100050000C9404010C9404010C9404010C945005BC
:100060000C9404010C9404010C9404010C940401FC
:100070000C9404010C9404010C9404010C940401EC
:100080000C9404010C9404010C9404010C940401DC
:100090000C9404010C9404010C9404010C940401CC
:1000A0000C9404010C9404010C9404018401870154
:1000B00076017A017E01A801A801A8018B018F01B8
:1000C000930199019D01A801A301080B00020202FE
:1000D00001000904000001020200000524001001D3
:1000E0000524010101042402060524060001070578
:1000F000810310004009040100020A000000070506
:1001000002024000000705830240000004030904C6
:1001100012010002EF020140412337800001010279
:10012000030141726475696E6F204C4C430041724B
:100130006475696E6F204D6963726F000000000086
:10014000240027002A002D003000000000002500B8
:1001500028002B002E0031000404040404030405CD
:100160000202020204030202020206060606060654
:10017000040402020204040408020110408040103A
:1001800020408040800802040180402010020110BD
:100190008010204040200000000200090F000003F2
:1001A0000401000C0000000000000000000000003E
:1001B0000000000000007E0A11241FBECFEFDAE02D
:1001C000DEBFCDBF21E0A2E7B1E001C01D92A53E98
:1001D000B207E1F711E0A0E0B1E0E6E5FAE102C024
:1001E00005900D92A237B107D9F710E0CCEDD0E021
:1001F00004C02197FE010E94130BCB3DD107C9F724
:100200000E944A080C94290D0C9400002091900142
:10021000211103C08FEF9FEF08955FB7F89422E09C
:100220002093E9002091F20030E01216130614F436
:1002300021E030E0422FFC0184E6415038F0289A5A
:1002400080938F019091F1009193F7CF21153105A3
:1002500021F08091F200882319F05FBFC901089551
:100260008BE68093E800F9CF2FB7F89483E0809372
:10027000E9009091E800892F807295FF04C0909169
:10028000F20080E4891B2FBF0895809187018111BE
:100290000DC082E08093830184E0809384011092FA
:1002A00086011092850181E08093870183E891E0C7
:1002B0000895362F90E0FC01EA56FE4F4491FC0170
:1002C000E958FE4F2491FC01E85AFE4F849188239F
:1002D00009F452C04423E1F150E0FA013197EF30C4
:1002E000F105B0F5EA5AFF4F0C94130B9091800082
:1002F0009F7707C0909180009F7D03C09091800000
:10030000977F9093800024C094B59F7702C094B5E6
:100310009F7D94BD1DC0909190009F7707C09091E4
:1003200090009F7D03C090919000977F90939000E4
:100330000FC09091C0009F7703C09091C0009F7D37
:100340009093C00005C09091C200977F9093C20027
:10035000E82FF0E0EE0FFF1FE65BFE4FA591B49192
:100360009FB7F894311104C08C912095282302C0C6
:10037000EC912E2B2C939FBF0895CF93DF9390E0A9
:10038000FC01E958FE4F2491FC01E85AFE4F84918C
:10039000882361F190E0880F991FFC01E45CFE4F17
:1003A000C591D491FC01E65BFE4FA591B49161111A
:1003B00009C09FB7F8948881209582238883EC91A7
:1003C0002E230BC0623061F49FB7F8948881322FDE
:1003D000309583238883EC912E2B2C939FBF06C0EE
:1003E0008FB7F894E8812E2B28838FBFDF91CF91B0
:1003F00008953FB7F89480917F0190918001A0917A
:100400008101B091820126B5A89B05C02F3F19F04C
:100410000196A11DB11D3FBFBA2FA92F982F882784
:10042000820F911DA11DB11DBC01CD0142E0660FDF
:10043000771F881F991F4A95D1F708958F929F9231
:10044000AF92BF92CF92DF92EF92FF926B017C014D
:100450000E94F9014B015C01C114D104E104F104D3
:10046000F1F00E94F901DC01CB0188199909AA0970
:10047000BB09883E9340A105B10570F321E0C21A83
:10048000D108E108F10888EE880E83E0981EA11CCF
:10049000B11CC114D104E104F10419F7DDCFFF90C0
:1004A000EF90DF90CF90BF90AF909F908F90089586
:1004B0004091740150917501209172013091730146
:1004C00042175307B4F49091E8009570E1F39091CE
:1004D000E80092FD19C08093F10080917401909121
:1004E000750101968F739927892B19F48EEF8093EC
:1004F000E8008091740190917501019690937501C7
:100500008093740181E0089580E00895DF92EF9276
:10051000FF920F931F93CF93DF93D82EF92EE42EE3
:10052000062F10E0C8010196880F0E94580283E050
:100530000E945802CD2DDF2D0C0F1D1FC017D107B3
:1005400089F0E7FE03C0FE01849101C088810E940A
:100550005802F82E80E00E9458028F2121968111C6
:10056000EDCF01C081E0DF91CF911F910F91FF90FE
:10057000EF90DF900895DF92EF92FF920F931F9319
:10058000CF93DF93D82E8A017B01E40EF51EEB0199
:10059000CE15DF0571F0D7FE03C0FE01849101C0C6
:1005A00088810E94580221968111F2CF8FEF9FEF30
:1005B00001C0C801DF91CF911F910F91FF90EF9083
:1005C000DF9008950F931F93CF93DF931F92CDB7C2
:1005D000DEB782E0898342E450E06AEC70E080E8B4
:1005E0000E94BB020E944501DC0112960D911C91F4
:1005F00013970115110589F0D801ED91FC91028046
:10060000F381E02DBE016F5F7F4FC801099597FD13
:1006100004C0F80100851185ECCF89810F90DF912E
:10062000CF911F910F910895615030F02091F1000A
:10063000FC0120830196F8CF289A84E680938F01ED
:100640000895CF92DF92EF92FF920F931F93CF9373
:10065000DF936C017A018B01C0E0D0E0CE15DF059D
:1006600081F0D8016D918D01D601ED91FC91019041
:10067000F081E02DC6010995892B11F02196EECF6E
:100680007E01C701DF91CF911F910F91FF90EF90F5
:10069000DF90CF9008958F929F92AF92BF92CF92AA
:1006A000DF92EF92FF920F931F93CF93DF936C0132
:1006B0007B018A0180910B01882309F45CC0809141
:1006C0009001882309F457C08091780180FF05C00C
:1006D0008091E00082608093E000E801B12C8AEF15
:1006E000A82E93E0892E2AE3922E209711F4BB20A6
:1006F000D9F10E94340181110AC0AA94AA20D9F12B
:1007000061E070E080E090E00E941E02EECF282FB2
:1007100030E0C217D3070CF48C2F9FB7F894809267
:10072000E9002091E80025FF1DC0282F30E0C21B02
:10073000D30BF701815020F041914093F100FACFA3
:10074000E20EF31EBB2019F09092E8000AC08091DF
:10075000E80085FD07C09092E800BB24B394209781
:1007600009F0B12C9FBFC1CF5D9A84E680937701D9
:100770001016110644F081E090E0F6019383828325
:1007800080E090E001C0C801DF91CF911F910F91EF
:10079000FF90EF90DF90CF90BF90AF909F908F90A1
:1007A0000895CF93DF931F92CDB7DEB76983DC0145
:1007B000ED91FC910280F381E02D41E050E0BE011B
:1007C0006F5F7F4F09950F90DF91CF91089583E080
:1007D0008093E9008091F200882319F08AE38093E6
:1007E000E80008950E94340190E00895CF93DF93CC
:1007F0001F92CDB7DEB7FC018485958597FD05C0B6
:100800002FEF3FEF358724870BC0CE0101960E9462
:100810000601019719F4898190E002C08FEF9FEFE4
:100820000F90DF91CF9108950F931F93CF93DF9394
:100830001F92CDB7DEB78C01FC018485958597FFAB
:100840000EC0CE0101960E940601019719F489811C
:1008500090E002C08FEF9FEFF80195878487F80141
:10086000848595850F90DF91CF911F910F91089509
:10087000FC018485958597FD0BC09FB7F89482E0B5
:100880008093E9008091F2009FBF90E00196089567
:100890009FB7F89482E08093E9008091F2009FBFB7
:1008A00090E00895089580E090E0089542E050E0DF
:1008B0006BE371E081E991E00C944B03CF93DF93FC
:1008C000EC0188819981009711F00E94C50B198273
:1008D00018821D821C821B821A82DF91CF9108959B
:1008E0000E94140D0F931F93CF93DF93EC01888127
:1008F0009981009729F02A813B812617370788F4D0
:100900008B016F5F7F4F0E944E0C009761F09983BF
:1009100088831B830A832C813D81232B11F4FC01E6
:10092000108281E001C080E0DF91CF911F910F9193
:100930000895CF92DF92EF92FF920F931F93CF9380
:10094000DF93CDB7DEB728970FB6F894DEBF0FBEA2
:10095000CDBF8C01CB014AE09E012F5F3F4F690163
:10096000B9010E94930AF60101900020E9F731973E
:10097000EC19FD0901F1D8011496ED90FC90159742
:10098000EE0EFF1EB701C8010E947204882381F099
:10099000F8012081318184819581B601820F931FF6
:1009A0000E94220DD8011596FC92EE92149703C076
:1009B000C8010E945E04C80128960FB6F894DEBFF5
:1009C0000FBECDBFDF91CF911F910F91FF90EF90A0
:1009D000DF90CF900895EF92FF920F931F93CF93E4
:1009E000DF93EC0186179707C1F0FB0100811181AD
:1009F0000115110539F0E480F580B7010E947204F9
:100A0000811104C0CE010E945E0407C0FD82EC8209
:100A1000B801888199810E94220DCE01DF91CF918A
:100A20001F910F91FF90EF900895EF92FF920F9317
:100A30001F93CF93DF93EC01198218821B821A82D5
:100A40001D821C826115710521F18B01FB01019052
:100A50000020E9F731977F01E61AF70AB7010E94F3
:100A60007204811109C0CE01DF91CF911F910F91C6
:100A7000FF90EF900C945E04FD82EC82B8018881B7
:100A80009981DF91CF911F910F91FF90EF900C947E
:100A9000220DDF91CF911F910F91FF90EF9008955C
:100AA0001F920F920FB60F9211242F933F938F93A3
:100AB0009F93AF93BF9380917B0190917C01A09114
:100AC0007D01B0917E0130917A0123E0230F2D3713
:100AD00020F40196A11DB11D05C026E8230F029642
:100AE000A11DB11D20937A0180937B0190937C011D
:100AF000A0937D01B0937E0180917F019091800150
:100B0000A0918101B09182010196A11DB11D809338
:100B10007F0190938001A0938101B0938201BF91E6
:100B2000AF919F918F913F912F910F900FBE0F909A
:100B30001F9018951F920F920FB60F9211248F934A
:100B40009F938091E1009091E100937F9093E10069
:100B500083FF0FC01092E90091E09093EB00109298
:100B6000EC0092E39093ED001092900198E0909346
:100B7000F00082FF20C093E09093E9009091F20092
:100B8000992319F09AE39093E800909177019923C3
:100B900039F090917701915090937701992389F1E1
:100BA00090918F01992339F090918F0191509093FA
:100BB0008F01992341F184FF10C08091E2008E7E65
:100BC00081608093E2008091E1008F7E8093E1005C
:100BD000809178018E7E806111C080FF16C0809167
:100BE000E2008E7E80618093E2008091E1008E7E43
:100BF0008093E100809178018E7E816080937801FE
:100C000004C05D98CDCF2898D6CF9F918F910F903B
:100C10000FBE0F901F9018951F920F920FB60F9254
:100C20001124CF92DF92EF92FF920F931F932F9395
:100C30003F934F935F936F937F938F939F93AF9364
:100C4000BF93EF93FF93CF93DF93CDB7DEB76C974E
:100C5000DEBFCDBF1092E9008091E80083FFFBC1A9
:100C600068E0CE0145960E94140382EF8093E8006D
:100C70008D8987FF05C09091E80090FFFCCF03C0ED
:100C80009EEF9093E800982F907609F0C6C09E8959
:100C90004F89588D2F89F88C91110CC0803829F418
:100CA000809179018093F10002C01092F1001092BE
:100CB000F10045C1913051F4811141C141305105DC
:100CC00009F03DC1809179018D7F0BC0933061F4B3
:100CD000811135C14130510509F031C1809179014F
:100CE0008260809379012BC1953049F48091E800AE
:100CF00080FFFCCF822F80688093E30020C1963074
:100D000009F05EC00B8D1C8D22E01092E90010925C
:100D1000750110927401F21232C010927301109298
:100D200072010E94E20299E0BE016F5F7F4FDB011A
:100D3000E92F1D92EA95E9F79983FA8291E09E8363
:100D400090EA98879AEF9987209174013091750104
:100D5000275F3F4F3C832B838D831092E9001092D5
:100D6000750110927401109373010093720149E0B0
:100D700050E080E00E94BB020E94E202E0C01093BB
:100D80007301009372010E944501DC0112960D91DE
:100D90001C9113970115110509F4BBC0D801ED9101
:100DA000FC910480F581E02DBE016B5E7F4FC80190
:100DB0000995009709F0C7C0F80100851185EACFB1
:100DC000973009F445C1983021F481E08093F10017
:100DD000B6C0993009F0B3C0837009F039C1EBE2B5
:100DE000F1E081E031E096E32081211109C08EE736
:100DF0008093EA001092EA008F89809390019FC04F
:100E00008093E9003093EB0021912093EC009093C4
:100E1000ED008F5F873041F7EACF8B8D9C8D10926C
:100E2000E900109275011092740190937301809300
:100E30007201898D811153C08E899D89913A49F43F
:100E4000813209F005C147E050E064E071E080E0E4
:100E5000BBC0913209F0FCC0833269F48F89988D50
:100E6000A0E0B0E08093000190930101A093020103
:100E7000B093030164C0803269F48091E80082FF7E
:100E8000FCCF67E084E091E00E9414038BEF809335
:100E9000E80055C0823209F052C08F8980930B015F
:100EA000EEEFFFE7859194918B3F9C4D19F0E0E0C8
:100EB000F8E002C0EEEFFAE08091040190910501A4
:100EC000A0910601B0910701803B9440A105B105B6
:100ED00009F09EC080910B0180FF79C099C00E94EB
:100EE0004501FC01028113810115110509F4B0C00F
:100EF000D801ED91FC910190F081E02DBE016B5E77
:100F00007F4FC801099581111AC0F801008511852C
:100F1000EBCFF1E0FF1609F44EC0F3E0FF1298C0EA
:100F20008F89882309F44AC0823089F440E86DE053
:100F30008EE291E00E948602882309F489C08EEF38
:100F40008093E80088C018161906CCF381C0813060
:100F500029F440E86BE082E291E0ECCF833009F0C5
:100F600077C00E944501DC011296ED90FC9013972A
:100F70008E010F5F1F4F6801E114F10479F0D70172
:100F8000ED91FC910680F781E02DB801C70109952C
:100F9000080F111DF701E084F184EECFD8011C92F7
:100FA000F60101900020E9F73197BF016C197D0926
:100FB00040E0C601BFCF60E171E002C06CE071E0CB
:100FC000FB01449150E080E80E94BB02B8CFEE3FA5
:100FD0002AE0F20751F0808191818737A7E79A07CD
:100FE00021F09093FF0A8093FE0A87E797E79183A9
:100FF000808380916000809376019BE088E10FB64A
:10100000F894A895809360000FBE9093600097CFEE
:10101000808191818737974709F091CFA89580917A
:101020006000886180936000809176018093600009
:10103000EE3FBAE0FB0739F08091FE0A9091FF0A7B
:10104000918380837CCF1092FF0A1092FE0A77CFA3
:1010500081E28093EB006C960FB6F894DEBF0FBE72
:10106000CDBFDF91CF91FF91EF91BF91AF919F9154
:101070008F917F916F915F914F913F912F911F9130
:101080000F91FF90EF90DF90CF900F900FBE0F90D9
:101090001F901895CF93DF93CDB7DEB72C970FB67F
:1010A000F894DEBF0FBECDBF789484B5826084BD56
:1010B00084B5816084BD85B5826085BD85B581605C
:1010C00085BD80916E00816080936E0010928100DA
:1010D0008091810082608093810080918100816095
:1010E0008093810080918000816080938000809156
:1010F0009100826080939100809191008160809343
:101100009100809190008160809390008091C10057
:1011100084608093C1008091C10082608093C1008F
:101120008091C10081608093C1008091C300816083
:101130008093C3008091C00082608093C000809142
:10114000C20081608093C20080917A0084608093A5
:101150007A0080917A00826080937A0080917A0090
:10116000816080937A0080917A00806880937A0011
:101170001092900110927901109278018091D7001D
:1011800081608093D70080EA8093D80089B5806120
:1011900089BD89B5826089BD09B400FEFDCF61E0DB
:1011A00070E080E090E00E941E028091D8008F7C69
:1011B00080618093D8008091E000807F8093E00080
:1011C0008091E1008E7E8093E1008DE08093E200CB
:1011D000559A209A5D9828988FEF9FEF90939E01E3
:1011E00080939D0151E3A52E51E0B52E00E010E063
:1011F000F501D080F2E0AF0EB11C61E08D2D0E94B0
:10120000BD0161E08D2D0E94590141E3842E41E032
:10121000942EE12CF12CE016F10609F468C06EE37F
:1012200071E0CE0107960E9415051A8219821C8270
:101230001B821E821D82BE01695F7F4FCE01019617
:101240000E94EB04B801CE0101960E949904FC01B2
:10125000448155816081718181E991E00E944B0355
:1012600089819A810E94C50B8F8198850E94C50B48
:101270006CE471E0CE0107960E9415051A8219826E
:101280001C821B821E821D82BE01695F7F4FCE01C0
:1012900001960E94EB04B701CE0101960E949904C9
:1012A000FC01448155816081718181E991E00E9456
:1012B0004B030E94560489819A810E94C50B8F813D
:1012C00098850E94C50BF401C08061E08C2D0E94BE
:1012D000BD0160E08C2D0E9459016AEF70E080E052
:1012E00090E00E941E0260E08C2D0E94BD01FFEF85
:1012F000EF1AFF0A82E0880E911CE5E0EE16F10479
:1013000009F089CF60E08D2D0E94BD010F5F1F4F56
:101310000530110509F06CCF4DE050E06AE571E051
:1013200081E991E00E944B030E94560484E6282E36
:10133000312C9AE0492E512C28EE622E23E0722E99
:1013400030E0C32E30E0D32EE12CF12CC701B101E7
:101350000E94FF0A8B01CB01B2010E94FF0A5C01CF
:10136000C701B3010E94FF0A4B0168E671E0CE019C
:1013700001960E94150518861F821A8619861C86FA
:101380001B86BE016F5F7F4FCE0107960E94EB0464
:10139000B801CE0107960E949904FC014481558151
:1013A0006081718181E991E00E944B030E945604A3
:1013B0008F8198850E94C50B89819A810E94C50BF7
:1013C00000E010E0C501002E02C0959587950A94B3
:1013D000E2F780FF4BC061E0809110010E94BD01E7
:1013E0000230110501F10330110549F101301105F9
:1013F00061F061E0809110010E94590161E08091EB
:101400000E010E94BD0160E00BC060E08091100100
:101410000E94590161E080910E010E94BD0161E0CE
:1014200080910E0119C061E0809110010E94590164
:1014300061E080910C010E94BD0160E00BC060E0A2
:10144000809110010E94590161E080910C010E947D
:10145000BD0161E080910C010E94590162E070E0E1
:1014600080E090E00E941E0211BA10BAC401002E62
:1014700002C0959587950A94E2F780FF29C061E044
:1014800080910E010E94BD0161E080910C010E94DB
:10149000BD010115110551F001301105B9F461E0EC
:1014A00080910E010E94590160E006C060E08091C9
:1014B0000E010E94590161E080910C010E945901C6
:1014C00062E070E080E090E00E941E0211BA10BA63
:1014D0000F5F1F4F0430110509F074CFFFEFEF1AB3
:1014E000FF0A84ECE81689E0F80609F02FCFC11452
:1014F000D10409F429CF0E94000026CFE1E9F1E0F0
:101500001382128288EE93E0A0E0B0E0848395839A
:10151000A683B7838CE191E0918380838FEF9FEF67
:10152000958784870895BB274A3031F4992322F4A4
:10153000BDE2909581959F4F0C949F0ABB27FB01BC
:101540005527AA27880F991FAA1FA41710F0A41BBC
:1015500083955051B9F7A05DAA3308F0A95DA19316
:10156000009779F7B111B1931192CB010C94B80A9D
:10157000DC01FC01672F71917723E1F7329704C0FA
:101580007C916D9370836291AE17BF07C8F3089585
:101590002F923F924F925F926F927F928F929F9283
:1015A000AF92BF92CF92DF92EF92FF920F931F9371
:1015B000CF93DF93CDB7DEB7CA1BDB0B0FB6F89422
:1015C000DEBF0FBECDBF09942A88398848885F8462
:1015D0006E847D848C849B84AA84B984C884DF80D3
:1015E000EE80FD800C811B81AA81B981CE0FD11DB7
:1015F0000FB6F894DEBF0FBECDBFED01089597FB87
:10160000072E16F4009407D077FD09D00E94190B1D
:1016100007FC05D03EF4909581959F4F08957095F5
:1016200061957F4F0895EE0FFF1F0590F491E02D17
:101630000994AA1BBB1B51E107C0AA1FBB1FA61719
:10164000B70710F0A61BB70B881F991F5A95A9F76B
:1016500080959095BC01CD0108950F931F93CF9372
:10166000DF938230910510F482E090E0E091E30195
:10167000F091E40120E030E0A0E0B0E0309719F113
:10168000408151810281138148175907C8F084179E
:10169000950769F4109731F012960C9312971396F0
:1016A0001C9327C00093E3011093E40122C021158D
:1016B000310519F04217530718F49A01BD01EF01E3
:1016C000DF01F801DBCF21153105F9F0281B390BBB
:1016D0002430310580F48A819B816115710521F0E8
:1016E000FB019383828304C09093E4018093E30120
:1016F000FE01329644C0FE01E20FF31F81939193E5
:1017000022503109398328833AC02091E101309178
:10171000E201232B41F42091140130911501309303
:10172000E2012093E1012091120130911301211572
:10173000310541F42DB73EB7409116015091170184
:10174000241B350BE091E101F091E201E217F30770
:10175000A0F42E1B3F0B2817390778F0AC014E5F21
:101760005F4F2417350748F04E0F5F1F5093E2017B
:101770004093E1018193919302C0E0E0F0E0CF015A
:10178000DF91CF911F910F910895CF93DF93009731
:1017900009F481C0FC01329713821282A091E30107
:1017A000B091E401109781F420813181820F931F61
:1017B0002091E1013091E2012817390751F5F093AA
:1017C000E201E093E10167C0ED0120E030E0CE17D7
:1017D000DF0740F44A815B819E0141155105F1F01C
:1017E000EA01F5CFD383C28340815181840F951FD5
:1017F000C817D90759F488819981840F951F0296DB
:10180000918380838A819B81938382832115310513
:1018100029F4F093E401E093E3013DC0E901FB8387
:10182000EA8349915991C40FD51FEC17FD0761F464
:1018300080819181840F951F0296E90199838883A5
:10184000828193819B838A83E0E0F0E012968D9100
:101850009C911397009719F0FD01DC01F7CF8D9152
:101860009C9111979D012E5F3F4F820F931F2091F6
:10187000E1013091E2012817390769F4309729F422
:101880001092E4011092E30102C013821282B0931D
:10189000E201A093E101DF91CF910895A0E0B0E0D3
:1018A000E4E5FCE00C94CC0AEC01009721F4CB01B8
:1018B0000E942D0BB4C0FC01E60FF71F9C012250C3
:1018C0003109E217F30708F4A8C0D9010D911C9162
:1018D000119706171707B0F00530110508F49BC0E3
:1018E000C80104978617970708F495C0025011099C
:1018F000061B170B019311936D937C93CF010E94EC
:10190000C50B89C05B01A01AB10A4C01800E911E63
:10191000A091E301B091E401612C712CE12CF12C38
:10192000109709F446C08D919C911197A815B9059F
:10193000B1F56C0142E0C40ED11CCA14DB0478F18D
:101940004C018A189B08640142E0C40ED11C129617
:10195000BC9012971396AC91B5E0CB16D10440F031
:10196000B282A38391828082D9016D937C9309C056
:101970000E5F1F4F800F911FF90191838083EB2D24
:10198000FA2FE114F10431F0D7011396FC93EE9392
:10199000129741C0F093E401E093E3013CC0681664
:1019A000790608F43C017D0112960D90BC91A02DA2
:1019B000B7CF8091E1019091E20188169906E1F498
:1019C00066167706C8F48091120190911301009772
:1019D00041F48DB79EB74091160150911701841BB9
:1019E000950BE817F907C8F4F093E201E093E101E1
:1019F000F901718360830FC0CB010E942D0B7C0124
:101A0000009759F0A801BE010E94190DCE010E9455
:101A1000C50BC70104C0CE0102C080E090E0CDB785
:101A2000DEB7EEE00C94E80A81E090E0F8940C94C4
:101A3000290DFB01DC0102C001900D924150504084
:101A4000D8F70895FB01DC0101900D920020E1F729
:061A50000895F894FFCF99
:101A5600FFFFFFFF00E10000000000001700160076
:101A660015000000E501800000000000D1034B03D3
:101A7600F203E7033804F603140400C18081000072
:101A860000170016001500140013000D0A004F750C
:101A96007470757420486967683A2000204F757421
:101AA600707574204C6F773A200048612066696E25
:101AB600616C697A61646F004E756D65726F3A206C
:021AC60000001E
:00000001FF
